:020000040000fa
:080000000001040000000000f3
:020000040000fa
:10000800fa020000fa020000fa020000fa020000f8
:10001800fa020000fa020000fa020000fa020000e8
:10002800fa020000fa020000fa020000fa020000d8
:10003800fa020000fa020000fa020000fa020000c8
:1000480000020000fa020000fa0200001a02000092
:10005800fa020000fa020000fa0200009a01000009
:10006800fa020000fa020000fa020000fa02000098
:10007800fa020000fa020000fa020000fa02000088
:10008800fa020000fa020000fa020000fa02000078
:10009800fa020000fa020000fa020000fa02000068
:1000a800fa020000fa020000fa020000fa02000058
:1000b800fa020000fa020000fa020000fa02000048
:1000c800fa020000fa020000fa020000fa02000038
:1000d800fa020000fa020000fa020000fa02000028
:1000e800fa020000fa020000fa020000fa02000018
:0800f800fa020000fa02000008
:020000040000fa
:10010800fa020000fa020000fa020000fa020000f7
:10011800fa020000fa020000fa020000fa020000e7
:10012800fa020000fa020000fa020000fa020000d7
:10013800fa020000fa020000fa020000fa020000c7
:1001480000020000fa020000fa0200001a02000091
:10015800fa020000fa020000fa0200009a01000008
:10016800fa020000fa020000fa020000fa02000097
:10017800fa020000fa020000fa020000fa02000087
:10018800fa020000fa020000fa020000fa02000077
:10019800fa020000fa020000fa020000fa02000067
:1001a800fa020000fa020000fa020000fa02000057
:1001b800fa020000fa020000fa020000fa02000047
:1001c800fa020000fa020000fa020000fa02000037
:1001d800fa020000fa020000fa020000fa02000027
:1001e800fa020000fa020000fa020000fa02000017
:0801f800fa020000fa02000007
:020000040000fa
:10020000ef8420000e9f20000e01880000000000f7
:10021000000020000000e000020032000001200089
:10022000200288000c000700e02f200001002000c1
:1002300011000700000020000000e0000200320072
:100240000000020000000000340202000000000074
:100250000040da000000fe004440a9000000200039
:100260000000e0000300320000002000a001880030
:100270004440a8000000060091018800800078003a
:100280000000eb0015003700e280400032a0b4000f
:100290009101ba00e280400032a0b4009102ba009d
:1002a000e280400032a0b4000002eb00472bde00e9
:1002b000f507b200602ce10004003a000059eb00a1
:1002c0008301e900fdff3e00040037006128e100e2
:1002d000010032000082eb00040007001101ba00a7
:1002e0000200e000e8ff3a00000006003159ba00c1
:1002f0008301e9000c0032002159ba008301e900b2
:10030000080032000400e00003003a00e2804000f0
:1003100032a0b400f5ff370011d9ba008301e9001b
:10032000faff3a008100e800e180400032a0b4000a
:1003300000000600849fbe00869fbe000000fa00f9
:100340004516800084032000048262000442880075
:10035000044280004322de00044288000442800000
:1003600084024200c481200004824200140278000a
:10037000a40e880004428000e10f52001b003a00e6
:100380006584200095427800054278000414a2009c
:100390000482fb000402e9004f22de0004427800e0
:1003a0008542e8008543780066842000074b78008a
:1003b000e04f52000d0032005408800014428800c3
:1003c0000002eb005408880025428000144280009f
:1003d000048242000402d1002442880014c0b30009
:1003e0000443780065842000864a780085e0a900ef
:1003f0000080fa004f03be004f02be00004006001e
:10040000841f78000000fa00840c2000b40e8800dd
:10041000b40e8000c40e8800b40e8000d40e880094
:100420003c88a8008500a9000080fa004f027800ef
:1004300000400600841f78000000fa008560a900d3
:10044000840c2000b40e8800b40e8000c40e880016
:10045000b40e8000d40e88003c28a8000080fa006a
:100460004f027800004006000000fa00340020002f
:10047000941688000002eb00e416880004fc2f00ac
:10048000c4168800040e200004068800040e200014
:100490002406880085e0a9008de0a8002900070057
:1004a000180007004a0007000002eb002442880001
:1004b0004516800084032000048262000442880004
:1004c000044280004322de0004428800044280008f
:1004d00084024200c4812000048242001402780099
:1004e000a40e880074772000440e880013e1a80051
:1004f00014c0b3000443780065842000864a780065
:10050000ebff37000000fa0084ff2f00441588003d
:1005100044062000041588000420200014158800db
:1005200024002000341588000408200024158800c9
:100530008560a9008d60a800a1e2a8000080fa00f3
:10054000000006000000fa00f40f2000240e8800ce
:1005500004702000440e88000002eb00a40e880006
:10056000040a2000b40e8800b40e8000c40e880077
:10057000b40e8000d40e880004f02000540e8800d1
:1005800004002800040e88000080fa000000060025
:100590000000fa000002eb00241188008500a90089
:1005a0008d00a800c40480000400a0000410a10075
:1005b0000420a000c404880004182000141188003e
:1005c00020c2a90021e2a8000080fa000000060075
:1005d0000000fa0004032000940888000002eb00e9
:1005e000540888000082eb00740888000080fa003c
:0c05f000000006000040da000000fe00e1
:020000040000fa
:1005fc003c08000012000000000000000008000091
:10060c003c00000002000000303030003030300080
:10061c000053700065656400203d200030303000d0
:10062c003030200072706d000d0a000000000000d8
:10063c001002040020040200010810000801200030
:10064c000000000000012000100801000804020056
:0c065c000420100002000000000000005c
:020000040000fa
:0200000401f009
:04000000f5bf000048
:020000040000fa
:0200000401f009
:04000400ff7f00007a
:020000040000fa
:0200000401f009
:040008007cff000079
:020000040000fa
:0200000401f009
:04001400ffff0000ea
:020000040000fa
:0200000401f009
:04001800ffff0000e6
:00000001FF
