:020000040000fa
:080000000001040000000000f3
:020000040000fa
:10000800e8020000e8020000e8020000e802000040
:10001800e8020000e8020000e8020000e802000030
:10002800e8020000e8020000e8020000e802000020
:10003800e8020000e8020000e8020000e802000010
:10004800f6010000e8020000e8020000e8020000f3
:10005800e8020000e8020000e80200009401000045
:10006800e8020000e8020000e8020000e8020000e0
:10007800e8020000e8020000e8020000e8020000d0
:10008800e8020000e8020000e8020000e8020000c0
:10009800e8020000e8020000e8020000e8020000b0
:1000a800e8020000e8020000e8020000e8020000a0
:1000b800e8020000e8020000e8020000e802000090
:1000c800e8020000e8020000e8020000e802000080
:1000d800e8020000e8020000e8020000e802000070
:1000e800e8020000e8020000e8020000e802000060
:0800f800e8020000e80200002c
:020000040000fa
:10010800e8020000e8020000e8020000e80200003f
:10011800e8020000e8020000e8020000e80200002f
:10012800e8020000e8020000e8020000e80200001f
:10013800e8020000e8020000e8020000e80200000f
:10014800f6010000e8020000e8020000e8020000f2
:10015800e8020000e8020000e80200009401000044
:10016800e8020000e8020000e8020000e8020000df
:10017800e8020000e8020000e8020000e8020000cf
:10018800e8020000e8020000e8020000e8020000bf
:10019800e8020000e8020000e8020000e8020000af
:1001a800e8020000e8020000e8020000e80200009f
:1001b800e8020000e8020000e8020000e80200008f
:1001c800e8020000e8020000e8020000e80200007f
:1001d800e8020000e8020000e8020000e80200006f
:1001e800e8020000e8020000e8020000e80200005f
:0801f800e8020000e80200002b
:020000040000fa
:10020000ef8420000e9f20000e01880000000000f7
:1002100000012000200288000c000700a03220000e
:100220000100200011000700000020000000e00095
:100230000200320000000200000000001002020074
:10024000000000000040da000000fe004440a90069
:10025000000020000000e000030032000000200049
:10026000a00188004440a800000006009101880019
:10027000800078000000eb0015003700e2804000ad
:1002800032a0b4009101ba00e280400032a0b40074
:100290009102ba00e280400032a0b4000002eb00fc
:1002a000472bde00f507b200602ce10004003a00a5
:1002b0000059eb008301e900fdff3e000400370018
:1002c0006128e100010032000082eb000400070019
:1002d0001101ba000200e000e8ff3a000000060049
:1002e0003159ba008301e9000c0032002159ba00eb
:1002f0008301e900080032000400e00003003a0036
:10030000e280400032a0b400f5ff370011d9ba00f6
:100310008301e900faff3a008100e800e180400033
:1003200032a0b40000000600801f7800849fbe0049
:100330000000fa0045168000840320000482620059
:1003400014428800144280004322de0014428800d8
:100350001442800084024200e481200004824200b2
:1003600014027800a40e880014428000e10f5200ad
:1003700019003a00858420009542780005427800f3
:100380000414a2000482fb000402e9004f22de00f4
:10039000044278008542e8000540780048e8b7004c
:1003a000e04f52000c0032005408800024428800c4
:1003b0000002eb005408880035428000244280008f
:1003c000048242000402d1003442880014c0b30009
:1003d0000440780048e8b70085e0a9000080fa00f2
:1003e0004f02be004f00780000400600841f7800d6
:1003f0000000fa0024118000b40e8800b40e8000c2
:10040000c40e8800b40e8000d40e88003e88a80078
:100410008500a9000080fa004f0278000040060025
:100420000000fa0034002000941688000002eb005f
:10043000e416880004fc2f00c4168800040e200077
:1004400004068800040e20002406880085e0a90028
:100450008de0a800320007004400070053000700a9
:100460000002eb0034428800010037000000000069
:100470004516800084032000048262001442880034
:10048000144280004322de0014428800144280009f
:1004900084024200e48120000482420014027800b9
:1004a000a40e880074772000440e880013e1a80091
:1004b00014c0b3000440780048e8b700f44180005d
:1004c00070026200e00f5200e8ff32003442800008
:1004d000050020000401be0060342c003102200021
:1004e0003d0007000002be000402780004408800be
:1004f00005408000c4002000110009008482d8005b
:100500000002780004408800044080000442780023
:100510000402fb00241188003e88a900d4ff3700a4
:100520000000fa00f40f2000240e88000470200060
:10053000440e88000002eb00a40e8800040a20008c
:10054000b40e8800b40e8000c40e8800b40e800083
:10055000d40e880004f02000540e88000400280007
:10056000040e88000080fa00000006000000fa0077
:100570000002eb00241188008500a9008d00a8006e
:10058000c40480000400a0000410a1000420a00006
:10059000c4048800041820001411880020c2a90097
:1005a00021e2a8000080fa00000006000000fa0026
:1005b00004032000940888000002eb00540888001f
:1005c0000082eb00740888000080fa00000006003a
:1005d0000040da000000fe00839f68000100e00098
:1005e00002003d0060001000e08018000300e00001
:1005f00002003d0060011100e081190005000700c4
:100600004f00e00002003b0060001000e080180096
:10061000000006006022b800060220000000d000a2
:100620008180d2000482d2008582d2000000a00026
:100630000202520083825a0003003100020242008b
:1006400083824a000000a1000603e900f3ff3a009c
:0406500000000600a0
:020000040000fa
:100654003e08000010000000000000000008000038
:100664003e00000002000000000030003030300086
:100674003030000053706500656420003d20300078
:100684003030300030207200706d0d000a00000020
:1006940000001000020420000402010008100800f9
:1006a40001200000000000000120100008010800e3
:1006b40004020400201002000000000000000000fa
:020000040000fa
:0200000401f009
:04000000f5bf000048
:020000040000fa
:0200000401f009
:04000400ff7f00007a
:020000040000fa
:0200000401f009
:040008007cff000079
:020000040000fa
:0200000401f009
:04001400ffff0000ea
:020000040000fa
:0200000401f009
:04001800ffff0000e6
:00000001FF
