:020000040000fa
:080000000002040000000000f2
:020000040000fa
:100008008a0300008a0300008a0300008a030000b4
:100018008a0300008a0300008a0300008a030000a4
:100028008a0300008a0300008a030000900200008f
:100038008a0300008a0300008a0300008a03000084
:100048008a0300008a0300008a0300008a03000074
:100058008a0300008a0300008a0300008a03000064
:100068008a0300008a0300008a0300008a03000054
:100078008a0300008a0300008a0300008a03000044
:100088008a0300008a0300008a0300008a03000034
:100098008a0300008a0300008a0300008a03000024
:1000a8008a0300008a0300008a0300008a03000014
:1000b8008a0300008a0300008a0300008a03000004
:1000c8008a0300008a0300008a0300008a030000f4
:1000d8008a0300008a0300008a0300008a030000e4
:1000e8008a0300008a0300008a0300008a030000d4
:1000f8008a0300008a0300008a0300008a030000c4
:100108008a0300008a0300008a0300008a030000b3
:100118008a0300008a0300008a0300008a030000a3
:100128008a0300008a0300008a0300008a03000093
:100138008a0300008a0300008a0300008a03000083
:100148008a0300008a0300008a0300008a03000073
:100158008a0300008a0300008a0300008a03000063
:100168008a0300008a0300008a0300008a03000053
:100178008a0300008a0300008a0300008a03000043
:100188008a0300008a0300008a0300008a03000033
:100198008a0300008a0300008a0300008a03000023
:1001a8008a0300008a0300008a0300008a03000013
:1001b8008a0300008a0300008a0300008a03000003
:1001c8008a0300008a0300008a0300008a030000f3
:1001d8008a0300008a0300008a0300008a030000e3
:1001e8008a0300008a0300008a0300008a030000d3
:0801f8008a0300008a030000e5
:020000040000fa
:100208008a0300008a0300008a0300008a030000b2
:100218008a0300008a0300008a0300008a030000a2
:100228008a0300008a0300008a030000900200008d
:100238008a0300008a0300008a0300008a03000082
:100248008a0300008a0300008a0300008a03000072
:100258008a0300008a0300008a0300008a03000062
:100268008a0300008a0300008a0300008a03000052
:100278008a0300008a0300008a0300008a03000042
:100288008a0300008a0300008a0300008a03000032
:100298008a0300008a0300008a0300008a03000022
:1002a8008a0300008a0300008a0300008a03000012
:1002b8008a0300008a0300008a0300008a03000002
:1002c8008a0300008a0300008a0300008a030000f2
:1002d8008a0300008a0300008a0300008a030000e2
:1002e8008a0300008a0300008a0300008a030000d2
:1002f8008a0300008a0300008a0300008a030000c2
:100308008a0300008a0300008a0300008a030000b1
:100318008a0300008a0300008a0300008a030000a1
:100328008a0300008a0300008a0300008a03000091
:100338008a0300008a0300008a0300008a03000081
:100348008a0300008a0300008a0300008a03000071
:100358008a0300008a0300008a0300008a03000061
:100368008a0300008a0300008a0300008a03000051
:100378008a0300008a0300008a0300008a03000041
:100388008a0300008a0300008a0300008a03000031
:100398008a0300008a0300008a0300008a03000021
:1003a8008a0300008a0300008a0300008a03000011
:1003b8008a0300008a0300008a0300008a03000001
:1003c8008a0300008a0300008a0300008a030000f1
:1003d8008a0300008a0300008a0300008a030000e1
:1003e8008a0300008a0300008a0300008a030000d1
:0803f8008a0300008a030000e3
:020000040000fa
:100400004f8020000ebf20000e0188000000000079
:100410000c000700e0382000010020001100070058
:10042000000020000000e000020032000000020096
:1004300000000000c0020200000000000040da00de
:100440000000fe004440a900000020000000e00081
:100450000300320000002000a00188004440a800f2
:100460000000060091018800800078000000eb0089
:1004700015003700e280400032a0b4009101ba00bc
:10048000e280400032a0b4009102ba00e280400055
:1004900032a0b4000002eb00472bde00f507b200eb
:1004a000602ce10004003a000059eb008301e900f0
:1004b000fdff3e00040037006128e100010032002a
:1004c0000082eb00040007001101ba000200e00006
:1004d000e8ff3a00000006003159ba008301e90044
:1004e0000c0032002159ba008301e90008003200f3
:1004f0000400e00003003a00e280400032a0b400b3
:10050000f5ff370011d9ba008301e900faff3a007c
:100510008100e800e180400032a0b4000000060045
:10052000809fbe00821f78000000fa008460a9004e
:100530000000eb000008880000002200100888007e
:100540002016800000407800614060000004a20096
:10055000614060000080fb006100600022168000a6
:10056000e1ff2f00810061000080700020168800ec
:100570000080fa004f0178004f00be0000400600e6
:100580000000fa000300070037000700c002a900be
:10059000ffff37000000fa0090022000303a880088
:1005a000213a8000f0f32f0000806000203a88009c
:1005b000213a800000fe2f0000806000203a880071
:1005c0001200200080072000a109200033742000c1
:1005d0008049780081497800824978001200200023
:1005e00060042000710520002374200080497800f9
:1005f000814978008249780000000000113a8000ab
:10060000000027008080600000002100808f5000e3
:10061000faff3a0000000000113a800000022000ba
:1006200000806000e00f5000fbff320050c7a800c0
:1006300051a7a800813a800000702000008070005f
:10064000803a880051e7a80000000000813a80004d
:100650000000240000806000e00f5000fbff32002b
:100660000080fa00000006000000fa0083e0a80005
:1006700000032800200888000020260010088800b9
:100680000000eb000008880081e0a8002105800040
:10069000f0ff2800808060000000240000807000cf
:1006a000200588008460a9009460a8000080fa00fa
:1006b000000006000400fa00100798000800370048
:1006c0000000eb00000f7800010037001e0fe8006b
:1006d000703e20009e007800808f5000fbff3400a9
:1006e0001e0090008000ea001e0090000080700054
:1006f0004f00de00004078009e0090008100e9007d
:1007000011079800e04f5000edff3a000080fa001a
:0c071000000006000040da000000fe00bf
:020000040000fa
:10071c0000080000040000000200000000000000bf
:08072c000000000000000000c5
:020000040000fa
:042fe000cfff00001f
:020000040000fa
:042fe8007fff000067
:020000040000fa
:042fec003bff0000a7
:020000040000fa
:042ff000f9ff0000e5
:020000040000fa
:042ff400ffff0000db
:00000001FF
