:020000040000fa
:080000000001040000000000f3
:020000040000fa
:100008009e0300009e0300009e0300009e03000064
:100018009e0300009e0300009e0300009e03000054
:100028009e0300009e0300009e0300009e03000044
:100038009e0300009e0300009e0300009e03000034
:10004800260200009e0300009e0300009e0300009d
:100058009e0300009e0300009e0300009401000020
:100068009e0300009e0300009e0300009e03000004
:100078009e0300009e0300009e0300009e030000f4
:100088009e0300009e0300009e0300009e030000e4
:100098009e0300009e0300009e0300009e030000d4
:1000a8009e0300009e0300009e0300009e030000c4
:1000b8009e0300009e0300009e0300009e030000b4
:1000c8009e0300009e0300009e0300009e030000a4
:1000d8009e0300009e0300009e0300009e03000094
:1000e8009e0300009e0300009e0300009e03000084
:0800f8009e0300009e030000be
:020000040000fa
:100108009e0300009e0300009e0300009e03000063
:100118009e0300009e0300009e0300009e03000053
:100128009e0300009e0300009e0300009e03000043
:100138009e0300009e0300009e0300009e03000033
:10014800260200009e0300009e0300009e0300009c
:100158009e0300009e0300009e030000940100001f
:100168009e0300009e0300009e0300009e03000003
:100178009e0300009e0300009e0300009e030000f3
:100188009e0300009e0300009e0300009e030000e3
:100198009e0300009e0300009e0300009e030000d3
:1001a8009e0300009e0300009e0300009e030000c3
:1001b8009e0300009e0300009e0300009e030000b3
:1001c8009e0300009e0300009e0300009e030000a3
:1001d8009e0300009e0300009e0300009e03000093
:1001e8009e0300009e0300009e0300009e03000083
:0801f8009e0300009e030000bd
:020000040000fa
:10020000ef8220000e9f20000e01880000000000f9
:1002100000012000200288000c000700003e2000a2
:100220000100200011000700000020000000e00095
:100230000200320000000200000000004c02020038
:10024000000000000040da000000fe004440a90069
:10025000000020000000e000030032000000200049
:10026000a00188004440a800000006009101880019
:10027000800078000000eb0015003700e2804000ad
:1002800032a0b4009101ba00e280400032a0b40074
:100290009102ba00e280400032a0b4000002eb00fc
:1002a000472bde00f507b200602ce10004003a00a5
:1002b0000059eb008301e900fdff3e000400370018
:1002c0006128e100010032000082eb000400070019
:1002d0001101ba000200e000e8ff3a000000060049
:1002e0003159ba008301e9000c0032002159ba00eb
:1002f0008301e900080032000400e00003003a0036
:10030000e280400032a0b400f5ff370011d9ba00f6
:100310008301e900faff3a008100e800e180400033
:1003200032a0b40000000600801f7800849fbe0049
:10033000861f78000000fa0085e0a90045168000bd
:10034000840320000482620034418800344180002c
:100350004322de0034418800a41680000442780065
:10036000614262000482fb00610262004222dd0001
:1003700026418000b5ff2f008502630004827200d1
:10038000244188002441800064026200e00f520092
:100390000700320034418000840242004480200083
:1003a0000482420014027800a40e88000600370080
:1003b00034418000840242004481200004824200d3
:1003c00014027800a40e880034418000e10f52002e
:1003d00019003a00c5822000954278000542780055
:1003e0000414a2000482fb000402e9004f22de0094
:1003f000044278008542e800054078002ce8b70008
:10040000e04f52000c003200540880004441880044
:100410000002eb00540888005541800044418000f0
:10042000048242000402d1005441880014c0b30089
:10043000044078002ce8b7000080fa004f037800f1
:100440004f02be004f00780000400600801f780079
:10045000849fbe000000fa0024118000044278004e
:100460000440780000e8b700051180000404200073
:1004700004826200e00f52000100320020c2a90095
:100480002428a8008500a9000080fa004f02be00c1
:100490004f007800004006000000fa00f40f200032
:1004a00044158800d202a8000002eb00e416880080
:1004b0005f0007006c000700820007008a00070049
:1004c0000002eb00544188004516800084032000a0
:1004d0000482620034418800344180004322de00ff
:1004e00034418800a4168000044278006142620012
:1004f0000482fb00610262004222dd00264180008e
:10050000b5ff2f0085026300048272002441880039
:100510002441800064026200e00f520007003200b4
:100520003441800084024200448020000482420062
:1005300014027800a40e88000600370034418000c1
:1005400084024200448120000482420014027800a8
:10055000a40e880074772000440e88002408a800a8
:1005600013e1a80014c0b300044078002ce8b700e1
:100570002a003700a416800004427800614262001d
:100580000482fb00610262004222dd0026418000fd
:10059000b5ff2f00850263000482720024418800a9
:1005a00004802000144278000482fb00b40e88000e
:1005b000b40e8000c40e8800b40e8000d40e8800f3
:1005c0002441800062026200e00f520013003200fa
:1005d00054418000050020000401be0060342c005e
:1005e00031022000570007000002be00040278001c
:1005f00014408800154080003400200011000900dc
:100600008482d800000278004222de001440880074
:1006100014408000241188002428a900244180006f
:1006200061026200e00f5200d2ff3a00a6ff3700dd
:100630000000fa00d404800004c0a00004d0a00090
:1006400004e0a000d4048800040e20000406880002
:10065000040e20002406880085e0a9008de0a80093
:100660000080fa00000006000000fa0004fc2f00e1
:10067000c4168800f40f2000240e880004702000a7
:10068000440e88000002eb00a40e880044062000ff
:10069000b40e880044062000c40e880044062000e2
:1006a000d40e8800240e8000340e880044f0200010
:1006b000540e880004002800040e88000080fa0010
:1006c000000006000000fa000403200094088800df
:1006d0000002eb00540888000082eb0074088800d8
:1006e0000080fa00000006000000fa000002eb00a3
:1006f000241188008500a9008d00a800c404800092
:100700000400a0000410a1000420a000c40488007c
:100710000002eb001411880022a2a90022e2a80026
:100720002342a80022c2a9002302a80020c2a900d7
:1007300021e2a8000080fa00000006000040da0074
:100740000000fe00839f68000100e00002003d0001
:1007500060001000e08018000300e00002003d008f
:1007600060011100e0811900050007004f00e00062
:1007700002003b0060001000e0801800000006004e
:100780006022b800060220000000d0008180d20064
:100790000482d2008582d2000000a0000202520032
:1007a00083825a00030031000202420083824a0021
:1007b0000000a1000603e900f3ff3a000000060074
:020000040000fa
:1007c000240800000a0000000000000000080000eb
:1007d00024000000020000000000000000000000f3
:1007e000100204002004020001081000080120008b
:1007f00000000000000120001008010008040200b1
:0c080000042010000200000000000000b6
:020000040000fa
:0200000401f009
:04000000f5bf000048
:020000040000fa
:0200000401f009
:04000400d77f0000a2
:020000040000fa
:0200000401f009
:04000800efff000006
:020000040000fa
:0200000401f009
:04001400ffff0000ea
:020000040000fa
:0200000401f009
:04001800ffff0000e6
:00000001FF
