:08000000803102288731FC2F3A
:100E7C00F10071088731492708007A302100990068
:100E8C009A0198010800F0002000111E4A2F7008EA
:100E9C0023009A00080087314327873187318D273B
:100EAC0087318731642708002000911E5A2F2300B8
:100EBC009D1C622F1D121D161908080048302300B6
:100ECC009F0090309D0026309E00A0309B0001308A
:100EDC009C009A01990108007430F4007408F70022
:100EEC007308F5007208F400F20A0319F30A740887
:100EFC008400750885000008F6007608F800F808EC
:100F0C0003190800780887313E278731762F220095
:100F1C008C01373021008C00143023008C0024000D
:100F2C008C0122008E013D3021008E003D302300CB
:100F3C008E0024008E012100951700308B1B013090
:100F4C00F0008B1355303C008F00AA308F000F102F
:100F5C003D001008E039143890003C002408E039BA
:100F6C000138A40055308F00AA308F000F14701C6C
:100F7C00C12F8B1708008B1308008731512787313D
:100F8C00FA01FB01FC01E22F22008E101730F20057
:100F9C008830F300873172278731E22F22008E14BC
:100FAC002430F2008830F300873172278731E22F2A
:100FBC007C08313A031DF42F87315A278731F90009
:100FCC007908FC007C08303A0319CA2F7C08313AA6
:100FDC000319D42F7C08303A0319DE2F0030F200AD
:100FEC008830F300873172278731E22F7E10200082
:100FFC008731C32F543472347934203474346F34C1
:10100C00203469346E34733465347234743420345F
:10101C00303420346F347234203431340D340A348B
:10102C0000344C3445344434203469347334203423
:10103C004F34463446340D340A3400344C34453481
:10104C00443420346934733420344F344E340D34EA
:04105C000A3400341E
:020000040001F9
:04000E00E4FFFFDF2D
:00000001FF
