:040000000128FE2BAA
:1007600021008C162C009C0120009A0165309B0012
:100770002C009B019A01FC3020009C051C152100D7
:100780008C122C001C129C161C179C1708002100B0
:100790000C1623000C1621001E088F3910389E00FD
:1007A0009E13FC309E051D0883390C389D001D14D6
:1007B0000630F000F00BDA2B000021009D14080039
:1007C000733021009900B023C723F30121009D1845
:1007D000E62B1C08F1007108F3007308F1000230E9
:1007E000F135FF3E031DF02B7135F2007208F30066
:1007F00073082C009B0021009D14E62B2000E02BA9
:020000040001F9
:04000E00E4F9FFDF33
:00000001FF
