:08000000803102288731FD2F39
:100F6A008731DC278731B82F013021009D005030AE
:100F7A009E009B019C0108003830210099009A01CB
:100F8A0098011A1B0800C62F7B3020009C00653090
:100F9A009B009A0191100800250096018030940068
:100FAA0095013C309300323091009201080087315C
:100FBA00C12787318731EB2787318731C9278731A5
:100FCA008731D12787318731B927080022008C0160
:100FDA003F3021008C00173023008C0024008C0144
:100FEA002700910192019301013022009D0008001F
:060FFA0020008731B52F35
:020000040001F9
:04000E00E4FFFFDF2D
:00000001FF
