:1000000077288312A100573021020318003483128D
:100010008A0121088207FD34C834A8347E34FD34B7
:10002000E234C834BD34A834953485347E34A034E9
:10003000A034283428345034503414341434323436
:1000400003340F3432340F3403340F343234FD347C
:10005000FD34FD34E234C834C834E234C834BD342D
:10006000A8347E347E347E34A834A834A834C8340E
:10007000C834C834FD34FD34FD34A834BD34C8342C
:10008000E234FD34FD34E234C834FD34FD34E2346E
:10009000C834FD34C834BD34A834C834BD34A834A1
:1000A000A8349534A834BD34C834FD34A83495340C
:1000B000A834BD34C834FD34E234E234FD34E234D3
:1000C000E234FD348312A1008312A10803196F28C2
:1000D000A2018312A20A69288312A10364280800DE
:1000E000FF017F0A03197628FF0A71280800F32010
:1000F000FC20831685128312A3018B1C82288B108F
:100100008312A30A033083122305013A03198F28AF
:10011000033A0319A728013A0319BF28DC288312E0
:10012000A00120308312200203187D2837302007D9
:100130000120831692000330831293001430622052
:1001400083129301033062208312A00A9128831244
:10015000A0011B308312200203187D281C302007C9
:1001600001208316920003308312930050306220E6
:1001700083129301033062208312A00AA9288312FC
:10018000A00108308312200203187D2804302007C4
:10019000012083169200143083122007012083125D
:1001A00093000C302007012062208312930103305A
:1001B00062208312A00AC1288312A0010430831296
:1001C000200203187D2820080120831692000330A6
:1001D0008312930014306220831293010330622053
:1001E0008312A00ADE28703083168F0005150113D4
:1001F000D0308B009101080083168516653092007F
:100200001430831293000C3095008C10921412104D
:08021000121583168512080087
:02400E00C401EB
:00000001FF
