:020000040000fa
:080000000001040000000000f3
:020000040000fa
:1000080046040000460400004604000046040000c0
:1000180046040000460400004604000046040000b0
:1000280046040000460400004604000046040000a0
:100038004604000046040000460400004604000090
:1000480046040000fe010000f6010000280200003e
:100058004604000046040000460400009401000025
:100068004604000046040000460400004604000060
:100078004604000046040000460400004604000050
:100088004604000046040000460400004604000040
:100098004604000046040000460400004604000030
:1000a8004604000046040000460400004604000020
:1000b8004604000046040000460400004604000010
:1000c8004604000046040000460400004604000000
:1000d80046040000460400004604000046040000f0
:1000e80046040000460400004604000046040000e0
:0800f80046040000460400006c
:020000040000fa
:1001080046040000460400004604000046040000bf
:1001180046040000460400004604000046040000af
:10012800460400004604000046040000460400009f
:10013800460400004604000046040000460400008f
:1001480046040000fe010000f6010000280200003d
:100158004604000046040000460400009401000024
:10016800460400004604000046040000460400005f
:10017800460400004604000046040000460400004f
:10018800460400004604000046040000460400003f
:10019800460400004604000046040000460400002f
:1001a800460400004604000046040000460400001f
:1001b800460400004604000046040000460400000f
:1001c80046040000460400004604000046040000ff
:1001d80046040000460400004604000046040000ef
:1001e80046040000460400004604000046040000df
:0801f80046040000460400006b
:020000040000fa
:10020000af8520000e9f20000e0188000000000036
:1002100000012000200288000c0007008048200018
:100220000100200011000700000020000000e00095
:100230000200320000000200000000004a0202003a
:10024000000000000040da000000fe004440a90069
:10025000000020000000e000030032000000200049
:10026000a00188004440a800000006009101880019
:10027000800078000000eb0015003700e2804000ad
:1002800032a0b4009101ba00e280400032a0b40074
:100290009102ba00e280400032a0b4000002eb00fc
:1002a000472bde00f507b200602ce10004003a00a5
:1002b0000059eb008301e900fdff3e000400370018
:1002c0006128e100010032000082eb000400070019
:1002d0001101ba000200e000e8ff3a000000060049
:1002e0003159ba008301e9000c0032002159ba00eb
:1002f0008301e900080032000400e00003003a0036
:10030000e280400032a0b400f5ff370011d9ba00f6
:100310008301e900faff3a008100e800e180400033
:1003200032a0b40000000600801f7800849fbe0049
:100330000000fa0085e0a900451680008403200033
:100340000482620074428800744280004322de000e
:10035000744288007442800084024200c4822000fb
:100360000482420014027800a40e880074428000c7
:10037000e10f520019003a004585200095427800af
:10038000054278000424a2000482fb000402e90074
:100390004f22de00044278008542e80005407800e4
:1003a00054e8b700e04f52000c00320054088000bf
:1003b000844288000002eb005408880095428000c7
:1003c00084428000048242000402d10094428800ea
:1003d00014c0b3000440780054e8b7000080fa006d
:1003e0004f02be004f007800004006000000fa00f7
:1003f0008540a9000080fa0000400600849fbe00ee
:100400000000fa008520a900c542800094108000f9
:1004100004427800844a7800c44280001442780084
:10042000ed4f520004003a004a48a8000480200022
:10043000c442880003003700c44280000402e80080
:10044000c44288000080fa004f02be00004006004f
:10045000841f78000000fa008560a90054428000e3
:1004600061026200e00f520007003200441f2000ca
:10047000b40e8800b40e8000c40e8800b40e800054
:10048000d40e88004a28a8000080fa004f027800a5
:10049000004006000000fa000002eb00e4168800ad
:1004a00004fc2f00c4168800c662a800c682a800fb
:1004b000c6a2a800040e200004068800040e200036
:1004c0002406880085e0a9008de0a800360007001a
:1004d0002500070052000700480007000002eb005b
:1004e0009442880045168000840320000482620044
:1004f00074428800744280004322de007442880007
:100500007442800084024200c482200004824200bf
:1005100014027800a40e880074772000440e88002e
:100520004a08a80013e1a80014c0b30004407800f2
:1005300054e8b70040062000bc0007000500370063
:100540005442800062026200e00f5200010032005b
:10055000420007005442800061026200e00f520036
:10056000f7ff3a00dfff37000000fa0084ff2f009a
:10057000441588004406200004158800042020004b
:100580001415880024002000341588000408200079
:10059000241588008560a9008d60a800a1e2a8004c
:1005a0000080fa00000006000000fa00f40f2000ae
:1005b000240e880004702000440e88000002eb0026
:1005c000a40e880044062000b40e880044062000d3
:1005d000c40e880044062000d40e8800240e80003b
:1005e000340e880004f02000540e88000400280017
:1005f000040e88000080fa00000006000000fa00e7
:1006000004032000940888000002eb0054088800ce
:100610000082eb00740888000080fa0000000600e9
:100620000000fa0004002800641088000002eb00bb
:1006300074108800f4012000a41088008d20a80008
:1006400004802000c44288004a48a9004a68a900e2
:100650000f42a8000080fa00000006000400fa0023
:1006600094428000050020000401be0060342c008c
:1006700031022000870007000002be00040f78004e
:100680009e02780004712200110009008482d800c3
:1006900000027800244798002e429000e04f52005c
:1006a000060032002e4290008482fb00048f2d0051
:1006b00004aab900040278001e0f42002e429000e6
:1006c0000443b000044078000fe8b7009e027800b1
:1006d000843e2000110009008482d80000027800c6
:1006e000244798002e429000e04f5200060032004e
:1006f0002e4290008482fb0084c12f0004aab9001e
:10070000040278001e0f42002e4290000443b00005
:100710000440780010e8b7009e02780044062000ec
:10072000110009008482d800000278002447980054
:100730002e429000e04f5200060032002e42900000
:100740008482fb00c4f92f0004aab90004027800d7
:100750001e0f42002e4290000443b0000440780077
:1007600011e8b7009e027800a400200011000900e3
:100770008482d80000027800244798002e4290001e
:10078000e04f5200060032002e4290008482fb00af
:1007900064ff2f0004aab900040278001e0f420073
:1007a0002e4290000443b0000440780012e8b700e5
:1007b0001e027800044278000443b0000440780030
:1007c00013e8b70074802000b442880003000700db
:1007d0004a28a9000080fa00000006000000fa0084
:1007e0000c0037000000000075108000042020007d
:1007f00004826200e00f5200fbff3a00b542800025
:10080000154278000482fb00841088000502e8008d
:10081000b4428800b442800014427800e04f520095
:10082000f0ff3a000080fa00000006000400fa0021
:1008300010079800080037000002eb00040f780052
:10084000010037001e0fe800743e20009e02780071
:10085000848f5200fbff36001e02900004f0a700b8
:100860000402ea000402ea004f22de00044278009b
:100870009e0290008502e90015079800e04f5200a3
:10088000edff3a000080fa00000006000040da00a8
:100890000000fe00839f68000100e00002003d00b0
:1008a00060001000e08018000300e00002003d003e
:1008b00060011100e0811900050007004f00e00011
:1008c00002003b0060001000e080180000000600fd
:1008d0006022b800060220000000d0008180d20013
:1008e0000482d2008582d2000000a00002025200e1
:1008f00083825a00030031000202420083824a00d0
:100900000000a1000603e900f3ff3a000000060022
:020000040000fa
:100910004a0800001000000000000000000800006d
:100920004a0000000200000030303000303030005b
:100930000053700065656400203d200030303000b9
:100940003030200072706d000d0a000000000000c1
:100950001002040020040200010810000801200019
:10096000000000000001200010080100080402003f
:1009700004201000020000000000000003000c0032
:10098000003000000f003c000033000000000000b9
:020000040000fa
:0200000401f009
:04000000f5bf000048
:020000040000fa
:0200000401f009
:04000400ff7f00007a
:020000040000fa
:0200000401f009
:040008007cfc00007c
:020000040000fa
:0200000401f009
:04001400ffff0000ea
:020000040000fa
:0200000401f009
:04001800ffff0000e6
:00000001FF
