:08000000803102288731FD2F39
:100F7E00FC302100990519088739683899000C143E
:100F8E008C140C128C1220008C0108008731BF27A4
:100F9E00873120000C160130F0000030F10087314F
:100FAE00E327873120000C121430F0000030F100DE
:100FBE008731E3278731D02F0130F0020030F13B2B
:100FCE00FF307106031DED2FFF3070060319080068
:100FDE00F201F30103307302E830031972020318B1
:100FEE00E32F0130F2070030F33DF12F200087315F
:020FFE00CD2FF5
:020000040001F9
:04000E00FFC9FFDD4A
:00000001FF
