:020000040000fa
:080000000001040000000000f3
:020000040000fa
:1000080088040000880400008804000088040000b8
:1000180088040000880400008804000088040000a8
:100028008804000088040000880400008804000098
:10003800ee01000088040000880400008804000025
:1000480088040000120200000a0200003c020000be
:10005800880400008804000088040000940100005f
:100068008804000088040000880400008804000058
:100078008804000088040000880400008804000048
:100088008804000088040000880400008804000038
:100098008804000088040000880400008804000028
:1000a8008804000088040000880400008804000018
:1000b8008804000088040000880400008804000008
:1000c80088040000880400008804000088040000f8
:1000d80088040000880400008804000088040000e8
:1000e80088040000880400008804000088040000d8
:0800f8008804000088040000e8
:020000040000fa
:1001080088040000880400008804000088040000b7
:1001180088040000880400008804000088040000a7
:100128008804000088040000880400008804000097
:10013800ee01000088040000880400008804000024
:1001480088040000120200000a0200003c020000bd
:10015800880400008804000088040000940100005e
:100168008804000088040000880400008804000057
:100178008804000088040000880400008804000047
:100188008804000088040000880400008804000037
:100198008804000088040000880400008804000027
:1001a8008804000088040000880400008804000017
:1001b8008804000088040000880400008804000007
:1001c80088040000880400008804000088040000f7
:1001d80088040000880400008804000088040000e7
:1001e80088040000880400008804000088040000d7
:0801f8008804000088040000e7
:020000040000fa
:10020000ef8420000e9f20000e01880000000000f7
:1002100000012000200288000c000700a04c2000f4
:100220000100200011000700000020000000e00095
:10023000020032000000020000000000580202002c
:10024000000000000040da000000fe004440a90069
:10025000000020000000e000030032000000200049
:10026000a00188004440a800000006009101880019
:10027000800078000000eb0015003700e2804000ad
:1002800032a0b4009101ba00e280400032a0b40074
:100290009102ba00e280400032a0b4000002eb00fc
:1002a000472bde00f507b200602ce10004003a00a5
:1002b0000059eb008301e900fdff3e000400370018
:1002c0006128e100010032000082eb000400070019
:1002d0001101ba000200e000e8ff3a000000060049
:1002e0003159ba008301e9000c0032002159ba00eb
:1002f0008301e900080032000400e00003003a0036
:10030000e280400032a0b400f5ff370011d9ba00f6
:100310008301e900faff3a008100e800e180400033
:1003200032a0b40000000600801f7800849fbe0049
:100330000000fa0085e0a900451680008403200033
:100340000482620014428800144280004322de00ce
:100350001442880004f02f00a40e8800144280008c
:10036000e10f520019003a00858420009542780080
:10037000054278000424a2000482fb000402e90084
:100380004f22de00044278008542e80005407800f4
:1003900048e8b700e04f52000c00320054088000db
:1003a000244288000002eb00540888003542800097
:1003b00024428000048242000402d10034428800ba
:1003c00014c0b3000440780048e8b7000080fa0089
:1003d0004f02be004f00780000400600841f7800e6
:1003e0000000fa008480a900240a800004408800ec
:1003f00004408000c40e880004408000b40e8800d1
:100400000002eb00340888000080fa004f027800f8
:10041000004006000000fa008540a9000080fa00b4
:1004200000400600849fbe000000fa008520a9005d
:10043000654280009410800004427800844a78006d
:100440006442800014427800ed4f520004003a00ec
:100450003e48a80024802000644288000300370042
:10046000644280000402e800644288000080fa00d0
:100470004f02be0000400600841f78000000fa0012
:100480008560a900f441800061026200e00f520023
:1004900004003200041480000402d100d40e88004d
:1004a0003e28a8000080fa004f02780000400600b5
:1004b0000000fa000002eb00e416880004fc2f00a4
:1004c000c4168800040e200004068800040e2000d4
:1004d0002406880085e0a9008de0a800330007000d
:1004e000220007004f00070045000700d200070068
:1004f0000002eb003442880045168000840320008f
:100500000482620014428800144280004322de000c
:1005100014428800f40f2000a40e88007477200095
:10052000440e88003e08a80013e1a80014c0b300e0
:100530000440780048e8b70040062000dc000700cf
:1005400005003700f441800062026200e00f5200b3
:100550000100320042000700f441800061026200a5
:10056000e00f5200f7ff3a00e3ff37000000fa0007
:1005700084ff2f00441588004406200004158800dd
:100580000420200014158800240020003415880061
:1005900004082000241588008560a9008d60a8004b
:1005a000a1e2a8000080fa00000006000000fa00a6
:1005b000f40f2000240e880004702000440e8800f0
:1005c0000002eb00a40e88000002eb00b40e8800cd
:1005d0000002eb00c40e880044062000d40e880000
:1005e000240e8000340e880004f02000540e880091
:1005f00004002800040e88000080fa0000000600b5
:100600000000fa0004032000940888000002eb00b8
:10061000540888000082eb00740888000080fa000b
:10062000000006000000fa000400280064108800a2
:100630000002eb0074108800f4012000a410880070
:100640008d20a80024802000644288003e48a90034
:100650003e68a9000f42a8000080fa0000000600d2
:100660000400fa0034428000050020000401be00ae
:1006700060342c0031022000a70007000002be00f9
:10068000040f78009e027800047122001100090016
:100690008482d80000027800244798002e429000ff
:1006a000e04f5200060032002e4290008482fb0090
:1006b000048f2d0004aab900040278001e0f420026
:1006c0002e4290000443b0000440780011e8b700c7
:1006d0009e027800843e2000110009008482d80028
:1006e00000027800244798002e429000e04f52000c
:1006f000060032002e4290008482fb0084c12f004d
:1007000004aab900040278001e0f42002e42900095
:100710000443b0000440780012e8b7009e0278005d
:1007200044062000110009008482d80000027800ed
:10073000244798002e429000e04f520006003200fd
:100740002e4290008482fb00c4f92f0004aab90055
:10075000040278001e0f42002e4290000443b000b5
:100760000440780013e8b7009e027800a40020003f
:10077000110009008482d800000278002447980004
:100780002e429000e04f5200060032002e429000b0
:100790008482fb0064ff2f0004aab90004027800e1
:1007a0001e0f42002e4290000443b0000440780027
:1007b00014e8b7001e027800044278000443b00039
:1007c0000440780015e8b700948020005442880067
:1007d000030007003e28a9000080fa000000060080
:1007e0000000fa000e0037000000000075108000c5
:1007f0000420200004826200e00f5200fbff3a0058
:1008000055428000154278000482fb008410880065
:100810000502e80054428800800c200024000700f4
:100820005442800014427800e04f5200eeff3a003c
:100830000080fa00000006000000fa00d222a800a2
:1008400004022000840888000002eb0034088800bd
:100850000082eb0064088800b40480000400a1005a
:100860000410a1000420a000b40488008480a90022
:100870008c80a800340a80000400a1000410a100ac
:100880000420a100340a880047a1a90046e1a8007d
:10089000340a80000400a0000410a1000420a1007c
:1008a000340a880011e1a8000080fa000000060068
:1008b0000400fa0010079800080037000002eb005f
:1008c000040f7800010037001e0fe800743e20007e
:1008d0009e027800848f5200fbff36001e029000bb
:1008e00004f0a7000402ea000402ea004f22de003e
:1008f000044278009e0290008502e90015079800e6
:10090000e04f5200edff3a000080fa0000000600c0
:100910000040da000000fe00839f68000100e00054
:1009200002003d0060001000e08018000300e000bd
:1009300002003d0060011100e08119000500070080
:100940004f00e00002003b0060001000e080180053
:10095000000006006022b800060220000000d0005f
:100960008180d2000482d2008582d2000000a000e3
:100970000202520083825a00030031000202420048
:1009800083824a000000a1000603e900f3ff3a0059
:04099000000006005d
:020000040000fa
:100994003e080000100000000000000000080000f5
:1009a4003e00000002000000000030003030300043
:1009b4003030000053706500656420003d20300035
:1009c4003030300030207200706d0d000a000000dd
:1009d40000001000020420000402010008100800b6
:1009e40001200000000000000120100008010800a0
:1009f40004020400201002000000000000000000b7
:020000040000fa
:0200000401f009
:04000000f5bf000048
:020000040000fa
:0200000401f009
:04000400ff7f00007a
:020000040000fa
:0200000401f009
:040008007cfc00007c
:020000040000fa
:0200000401f009
:04001400ffff0000ea
:020000040000fa
:0200000401f009
:04001800ffff0000e6
:00000001FF
