:020000040000fa
:080000000001040000000000f3
:020000040000fa
:1000080084040000840400008404000084040000c8
:1000180084040000840400008404000084040000b8
:1000280084040000840400008404000084040000a8
:100038008404000084040000840400008404000098
:1000480084040000fe010000f60100002802000000
:10005800840400008404000084040000940100006b
:100068008404000084040000840400008404000068
:100078008404000084040000840400008404000058
:100088008404000084040000840400008404000048
:100098008404000084040000840400008404000038
:1000a8008404000084040000840400008404000028
:1000b8008404000084040000840400008404000018
:1000c8008404000084040000840400008404000008
:1000d80084040000840400008404000084040000f8
:1000e80084040000840400008404000084040000e8
:0800f8008404000084040000f0
:020000040000fa
:1001080084040000840400008404000084040000c7
:1001180084040000840400008404000084040000b7
:1001280084040000840400008404000084040000a7
:100138008404000084040000840400008404000097
:1001480084040000fe010000f601000028020000ff
:10015800840400008404000084040000940100006a
:100168008404000084040000840400008404000067
:100178008404000084040000840400008404000057
:100188008404000084040000840400008404000047
:100198008404000084040000840400008404000037
:1001a8008404000084040000840400008404000027
:1001b8008404000084040000840400008404000017
:1001c8008404000084040000840400008404000007
:1001d80084040000840400008404000084040000f7
:1001e80084040000840400008404000084040000e7
:0801f8008404000084040000ef
:020000040000fa
:10020000cf8420000e9f20000e0188000000000017
:1002100000012000200288000c000700604c200034
:100220000100200011000700000020000000e00095
:100230000200320000000200000000004c02020038
:10024000000000000040da000000fe004440a90069
:10025000000020000000e000030032000000200049
:10026000a00188004440a800000006009101880019
:10027000800078000000eb0015003700e2804000ad
:1002800032a0b4009101ba00e280400032a0b40074
:100290009102ba00e280400032a0b4000002eb00fc
:1002a000472bde00f507b200602ce10004003a00a5
:1002b0000059eb008301e900fdff3e000400370018
:1002c0006128e100010032000082eb000400070019
:1002d0001101ba000200e000e8ff3a000000060049
:1002e0003159ba008301e9000c0032002159ba00eb
:1002f0008301e900080032000400e00003003a0036
:10030000e280400032a0b400f5ff370011d9ba00f6
:100310008301e900faff3a008100e800e180400033
:1003200032a0b40000000600801f7800849fbe0049
:100330000000fa0085e0a900451680008403200033
:100340000482620004428800044280004322de00ee
:10035000044288000442800084024200c4822000db
:100360000482420014027800a40e88000442800037
:10037000e10f520019003a00658420009542780090
:10038000054278000424a2000482fb000402e90074
:100390004f22de00044278008542e80005407800e4
:1003a00046e8b700e04f52000c00320054088000cd
:1003b000144288000002eb005408880025428000a7
:1003c00014428000048242000402d10024428800ca
:1003d00014c0b3000440780046e8b7000080fa007b
:1003e0004f02be004f007800004006000000fa00f7
:1003f0008540a9000080fa0000400600849fbe00ee
:100400000000fa008520a900554280009410800069
:1004100004427800844a78005442800014427800f4
:10042000ed4f520004003a003c48a8000480200030
:100430005442880003003700544280000402e80060
:10044000544288000080fa004f02be0000400600bf
:10045000841f78000000fa008560a900e441800054
:1004600061026200e00f52000800320004148000b4
:100470000402d100b40e8800b40e8000c40e8800bf
:10048000b40e8000d40e88003c28a8000080fa003a
:100490004f027800004006000000fa000002eb0066
:1004a000e416880004fc2f00c4168800040e200007
:1004b00004068800040e20002406880085e0a900b8
:1004c0008de0a800570007004600070073000700f2
:1004d000690007000002eb002442880000000000d1
:1004e000751680000400240004826200e00f5200b0
:1004f000fbff3a0002003700a0002000ea000700de
:10050000751680000400240004826200e00f52008f
:10051000f9ff320045168000840320000482620047
:1005200004428800044280004322de000442880026
:100530000442800084024200c482200004824200ff
:1005400014027800a40e880074772000440e8800fe
:100550003c08a80013e1a80014c0b30004407800d0
:1005600046e8b70040062000cf000700170037001c
:10057000751680000400240004826200e00f52001f
:100580000d003a0004702000440e88000002eb00c9
:10059000a40e88003c08a90002003700a00020003b
:1005a000c100070075168000040024000482620068
:1005b000e00f5200f9ff3200e44180006202620065
:1005c000e00f52000100320043000700e4418000c8
:1005d00061026200e00f5200e5ff3a0000000000f7
:1005e000bfff37000000fa0084ff2f004415880089
:1005f00044062000041588000420200014158800fb
:1006000024002000341588000408200024158800e8
:100610008560a9008d60a800a1e2a8000080fa0012
:10062000000006000000fa00f40f2000240e8800ed
:1006300004702000440e88000002eb00a40e880025
:1006400044062000b40e880044062000c40e880032
:1006500044062000d40e8800240e8000340e88004a
:1006600004f02000540e880004002800040e8800c6
:100670000080fa00000006000000fa0004032000d9
:10068000940888000002eb00540888000082eb0008
:10069000740888000080fa00000006000000fa00dc
:1006a00004002800641088000002eb007410880029
:1006b000f4012000a41088008d20a80004802000f0
:1006c000544288003c48a9003c68a9000f42a80099
:1006d0000080fa00000006000400fa0024428000b6
:1006e000050020000401be0060342c00310220000f
:1006f000870007000002be00040f78009e02780009
:1007000004712200110009008482d80000027800e0
:10071000244798002e429000e04f5200060032001d
:100720002e4290008482fb00048f2d0004aab900a1
:10073000040278001e0f42002e4290000443b000d5
:10074000044078000fe8b7009e027800843e200045
:10075000110009008482d800000278002447980024
:100760002e429000e04f5200060032002e429000d0
:100770008482fb0084c12f0004aab900040278001f
:100780001e0f42002e4290000443b0000440780047
:1007900010e8b7009e02780044062000110009000e
:1007a0008482d80000027800244798002e429000ee
:1007b000e04f5200060032002e4290008482fb007f
:1007c000c4f92f0004aab900040278001e0f4200e9
:1007d0002e4290000443b0000440780011e8b700b6
:1007e0009e027800a4002000110009008482d80035
:1007f00000027800244798002e429000e04f5200fb
:10080000060032002e4290008482fb0064ff2f001d
:1008100004aab900040278001e0f42002e42900084
:100820000443b0000440780012e8b7001e027800cc
:10083000044278000443b0000440780013e8b70095
:100840007480200044428800030007003c28a9006f
:100850000080fa00000006000000fa000c003700db
:100860000000000075108000042020000482620057
:10087000e00f5200fbff3a0045428000154278002d
:100880000482fb00841088000502e80044428800ce
:100890004442800014427800e04f5200f0ff3a00da
:1008a0000080fa00000006000400fa00100798001b
:1008b000080037000002eb00040f78000100370049
:1008c0001e0fe800743e20009e027800848f5200c4
:1008d000fbff36001e02900004f0a7000402ea00ad
:1008e0000402ea004f22de00044278009e029000db
:1008f0008502e90015079800e04f5200edff3a002d
:100900000080fa00000006000040da000000fe004f
:10091000839f68000100e00002003d0060001000bd
:10092000e08018000300e00002003d0060011100bb
:10093000e0811900050007004f00e00002003b00c5
:1009400060001000e0801800000006006022b8007f
:10095000060220000000d0008180d2000482d20074
:100960008582d2000000a0000202520083825a0059
:10097000030031000202420083824a000000a1000d
:0c0980000603e900f3ff3a000000060047
:020000040000fa
:10098c003c080000100000000000000000080000ff
:10099c003c000000020000003030300030303000ed
:1009ac000053700065656400203d2000303030003d
:1009bc003030200072706d000d0a00000000000045
:1009cc00100204002004020001081000080120009d
:1009dc0000000000000120001008010008040200c3
:0c09ec00042010000200000000000000c9
:020000040000fa
:0200000401f009
:04000000f6bf000047
:020000040000fa
:0200000401f009
:04000400d77f0000a2
:020000040000fa
:0200000401f009
:04000800efff000006
:020000040000fa
:0200000401f009
:04001400ffff0000ea
:020000040000fa
:0200000401f009
:04001800ffff0000e6
:00000001FF
