:08000000803102288731FD2F39
:100F1E0024009512403094001030950097019516DC
:100F2E00080070302100990022009D018B132100D2
:100F3E000C108C100C118C128B010800F001F101B9
:100F4E007108803AFF0080307F02031DB02FFF3002
:100F5E007002031808000130F0070030F13DA72F92
:100F6E00F40020008C12740824009100141CBD2F74
:100F7E001108F000F1017008F2007108F300200072
:100F8E008C16080021000C1623000C1621001E08DA
:100F9E008F3930389E00FC309E059E131D08833914
:100FAE000C389D001D140430F000F00BDC2FDF2FE9
:100FBE0021009D1408008731982787318731C92772
:100FCE00873187318F278731F601F601FA307602A5
:100FDE000318EC2F76088731B72787318731A5277D
:100FEE0087310130F5007508F607ED2F20008731A7
:020FFE00E22FE0
:020000040001F9
:04000E00E4F9FFDE34
:00000001FF
