:060000000A128A11EB2F29
:100A8800700883120313E3007108E400E501E6012E
:100A9800E701E70A08008130831603139900181547
:100AA8001812831203139817831603130C121813C2
:100AB80098160717871308007E088A007F088200A7
:100AC80060250A128A118000840A04087D06031929
:100AD8000034FF0A0319FE0A642D453444345534A2
:100AE80041345234443431343934393430340A34AA
:100AF8000D34003400340034003400340034003441
:100B0800003483120313A9002908FD007D08A800FA
:100B1800A51F9E2D2D30FD00290884007D08831314
:100B280080000130FD007D08A907A409A509A40AD1
:100B38000319A50A2508F901F9072408F801F80797
:100B48002708FB01FB072608FA01FA0729080A12F9
:100B58008A116D270800F201F3017308803AFF003B
:100B680080307F02031DBA2D20307202031808005E
:100B7800F001F1017108803AFF0080307F02031D07
:100B8800C72DFF3070020318DA2D0130F007031863
:100B9800F10A0030F1077108803AFF0080307F02C7
:100BA800031DD82DFF307002031CC92D0130F20738
:100BB8000318F30A0030F307B12D71087004031904
:100BC8000E2EF501F50AF11BF52D01300310F00D7D
:100BD800F10DFF3E031DEA2D0130F4007408F507FE
:100BE800E72D71087302031DFB2D70087202031CA8
:100BF800032E7008F2027108031CF303F30201309C
:100C08000310F10CF00CFF3E031D042E0130F50219
:100C1800031DF52D7308F101F1077208F001F007C3
:100C28000800F501F6017108700403194C2EF7014C
:100C3800F70AF11B2B2E01300310F00DF10DFF3ECA
:100C4800031D202E0130F4007408F7071D2E013013
:100C58000310F50DF60DFF3E031D2C2E71087302CF
:100C6800031D382E70087202031C412E7008F20210
:100C78007108031CF303F302751401300310F10C1F
:100C8800F00CFF3E031D422E0130F702031D2B2EF0
:100C98007608F101F1077508F001F0070800003047
:100CA800FC000030FB000030FA000030F900701C36
:100CB800712E7408F907750803110318013E031D06
:100CC800FA07760803110318013E031DFB0777088E
:100CD80003110318013E031DFC070130F80003103F
:100CE800F40DF50DF60DF70DF80B732E013003100A
:100CF800F30CF20CF10CF00CFF3E031D7B2E730875
:100D0800720471047004031D5B2E7C08F3007B08D9
:100D1800F2007A08F1007908F00008008312031342
:100D2800E708031DA02E0130F0000030F1000A1280
:100D38008A1144250A128A11393083120313A2003A
:100D48003030A3000030A4000030A5006608F3008E
:100D58006508F2006408F1006308F0004130F7000C
:100D6800C630F6004E30F5006D30F4000A128A11D4
:100D780053260A128A11700883120313A2077108F6
:100D88000318710FC82EC92EA30772080318720F13
:100D9800CE2ECF2EA40773080318730AA5072508BB
:100DA800E6002408E5002308E4002208E3006308BD
:100DB800A6006408A7006508A8006608A900103006
:100DC800AA00290DA90CA80CA70CA60CAA0BE52EA5
:100DD800FF302605A0007F302705A10008002F302E
:100DE80084004F3083120313AB000408AC001430A6
:100DF800AD002B08840083130008AE00AB0A2C0852
:100E080084002E088000AC0AAD0BFD2E0A128A1150
:100E18004F250A128A11FF308316031386000A121F
:100E28008A1192260A128A11831203132108CC010F
:100E3800CC072008CB01CB074C08A501A5074B0818
:100E4800A401A4071030A6000030A70043300A12FE
:100E58008A1185250A128A11831203130C1E302F5A
:100E6800CD01CE014E08803AFF0080307F02031D7D
:100E78003F2F04304D020318612F831203134D08CE
:100E8800433E84008313000899000A128A11AF2593
:100E98000A128A11013083120313CD070318CE0AF0
:100EA8000030CE074E08803AFF0080307F02031DD5
:100EB8005F2F04304D02031C412F0A128A11AF25FF
:100EC8000A128A110A308312031399000D3099000F
:100ED800132F83120313A3007908A101A10778082F
:100EE800A001A0077B08F101F1077A08F001F007DB
:100EF8002108F301F3072008F201F2070A128A1108
:100F080015260A128A11710883120313A101A10779
:100F18007008A001A0070130FC007C08A307210885
:100F28002004031D762F23088400831380010130D9
:100F3800A3027B08F101F1077A08F001F0077908AC
:100F4800F301F3077808F201F2070A128A11E12582
:100F58000A128A117008FC007C0883120313A2008D
:100F68007B08F101F1077A08F001F0077908F3012D
:100F7800F3077808F201F2070A128A1115260A12F5
:100F88008A117108F901F9077008F801F8070A30A1
:100F9800831203132202031CD52F0730FC007C08A0
:100FA800A2073030FC007C08A2072208FC002308B6
:100FB80084007C08831380000130A3027908780438
:100FC800031D9D2F0130FC007C08A3070800E301E6
:100FD800E401E501E601E70183136330FD00053014
:100FE800FE007130FF004F3084000A128A11642518
:080FF80083010A128A11F32E95
:02400E003AFF77
:00000001FF
