:040000000128F72FAD
:100A440020001C1508007A30210099009A01080042
:100A5400252552254025382530250800C0302C0096
:100A640099007F309800303097000800C0302C0087
:100A74009C007F309B0030309A00080020009C01CD
:100A8400FF309B009A019110222508007008210074
:100A9400A8007108A900AA01AB01AC01AC0A0800C6
:100AA40022008C013B3021008C00133023008C0089
:100AB40024008C0122008E013D3021008E000D3077
:100AC40023008E002100951722009D010800710863
:100AD400F3007008F200F336F20CF336F20C7208ED
:100AE4002C00980070080339F2000530F235FF3EFF
:100AF400031D782D7235F3007308970408007108FC
:100B0400F3007008F200F336F20CF336F20C7208BC
:100B14002C009B0070080339F2000530F235FF3ECB
:100B2400031D902D7235F30073089A0408000030F9
:100B34008B1B0130F2008B137008230091007108A5
:100B4400920015131514000000007208031D8B1782
:100B540003198B1323001408F101F1071308F001A2
:100B6400F007080000308B1B0130F2008B13700873
:100B740023009100710892001513151615155530B0
:100B84009600AA3096009514000000002300151169
:100B94007208031D8B1703198B1308000030FB0028
:100BA4000030FA000030F9000030F800701CE22D2B
:100BB4007408F8077508F93D7608FA3D7708FB3D97
:100BC4000130F435F50DF60DF70D890BE32D0130E9
:100BD400F336F20CF10CF00C890BEA2D7308720455
:100BE40071047004031DD82D7B08F3007A08F20009
:100BF4007908F1007808F0000800F03020002005A2
:100C0400A60007302105A70020080F39FD007D0844
:100C1400A500A8011030280203182B2E2808260747
:100C2400F00027080318270AF10099252000283529
:100C34002207FD007D08860087017008C03F710807
:100C4400C13F0130FD007D08A80710302802031CB5
:100C5400102E25352207FD007D0886008701230814
:100C6400C03F2408C13F2708F401F4072608F30114
:100C7400F3072208FD007D08F500CF2608002100B7
:100C8400AC08031D4A2E0130F0000030F100482565
:100C940021002B08F3002A08F2002908F100280893
:100CA400F0004130F700C630F6004E30F5006D30EC
:100CB400F400D025393070072100A8003030713D90
:100CC400A9000030723DAA000030733DAB00280833
:100CD4002000A000210029082000A10021002A08EA
:100CE4002000A20021002B082000A3001030A40043
:100CF400A337A20CA10CA00CA40B7A2EFF30200564
:100D0400FC007F302105FD0008002000AB01A81F76
:100D1400922EA709A809A70A0319A80AAB01AB0ACE
:100D2400A61F992EA509A609A50A0319A60A26082D
:100D340025040319C02EAA01AA0AA61BAB2E013052
:100D4400A535A60D890BA22E0130A9002908AA07F2
:100D54009F2E26082802031DB12E25082702031CF6
:100D6400B72E2508A7022608A83B0130A636A50CF5
:100D7400890BB82E0130AA02031DAB2E2B080319D0
:100D8400C82EA709A809A70A0319A80A2808A601B2
:100D9400A6072708A501A5070800F0307305F90088
:100DA40007307405FA0000308B1B0130FB007A0811
:100DB4007406031DDF2E79087306031D08008B13C8
:100DC4007408F101F1077308F001F007B42523005A
:100DD400151315159516FC0110307C020318222FEB
:100DE400730823009100740892007C357507F6009F
:100DF400760886008701010893007C357507F600A4
:100E0400760886008701403FF700413FF8007808E4
:100E140094007C080F3A0319951255309600AA30B5
:100E240096009514000000000130F3070030F43DF3
:100E34000130F6007608FC0710307C02031CF22E09
:100E4400230015117B08031D8B1703198B1308004E
:100E540090302100A0000130A100F430A200013044
:100E6400A3002F302000AC002C08EF002100A401C7
:100E7400A501A601A7012A2521002108F101F107F6
:100E84002008F001F007992571082100A501A507A4
:100E94007008A401A4072308F101F1072208F00156
:100EA400F007992571082100A701A7077008A6017A
:100EB400A6072508F101F1072408F001F0076925C8
:100EC40021002708F101F1072608F001F007812528
:100ED4000B302000AE002630AD006630AC00AC0B09
:100EE400712FAD0B712FAE0B712F003232302000F9
:100EF400A5000030A60041267D082000A801A8070F
:100F04007C08A701A7078726200026082100A50141
:100F1400A507200025082100A401A40732302000E1
:100F2400A5000030A60041267D082000A801A807DE
:100F34007C08A701A7078726200025080A3E210070
:100F4400A60000302000263D2100A7002508F1015D
:100F5400F1072408F001F007692521002708F101B1
:100F6400F1072608F001F00781252100210820005F
:100F7400A101A107210020082000A001A0076F08FB
:100F8400AC002C08A200210025082000A401A4071D
:100F9400210024082000A301A307FF252100230822
:100FA4002000A101A107210022082000A001A00720
:100FB4004F30AC002C08A200210027082000A40117
:100FC400A407210026082000A301A307FF2503305E
:100FD4002000AE000830AD007830AC00AC0BF02F30
:100FE400AD0BF02FAE0BF02F782F2100A801A90133
:0C0FF400AA01AB01AC017E1020002A2FE6
:020000040001F9
:04000E00E4FFFFDF2D
:00000001FF
