:08000000803102288731F22F44
:100F5C00FE0012001E00FE0BAF2F00343034303474
:100F6C003034303430343034303430343034303455
:100F7C000D340A34003423009C0119309B001E15DB
:100F8C009F111E122100111223009D171E139E1675
:100F9C0021000C1008007030210099008731C12706
:100FAC008731F201103072020318D72F7208F0004B
:100FBC007208203E86008701700881002000111EF7
:100FCC00E42F710886008701010823009A00013084
:100FDC00F0007008F207D82FB430840087308500F9
:100FEC0020308600003087000D308731AE2720007E
:040FFC008731D12F39
:020000040001F9
:04000E00E4EFFFDF3D
:00000001FF
