:08000000803102288731FD2F39
:100B060020001C150800F000700820009B0008005B
:100B1600F000700820009A0008007030210099004B
:100B26009A0198011A1B0800952D20009C01FF30A0
:100B36009B009A01911085318325080080302C0096
:100B460099007F30980030309700CF3025009E0501
:100B560008008531902585318531ED258531853132
:100B6600982585318531A1250800FB007B082000EA
:100B7600A000A101A2012008F0002108F10022082E
:100B8600F2008E30A3002308F300F40186316926B3
:100B96007008F8007108F9007208FA000800E830D9
:100BA600F2000330F3000130F0020030F13B700A2E
:100BB6000319710A03190800F201F30103307302E5
:100BC600E930031972020318D62D0130F2070030FE
:100BD600F33DE12D22008C01313021008C001130D3
:100BE60023008C0024008C0122008E013F3021005E
:100BF6008E003F3023008E0024008E0121009517C1
:100C060000308B1B0130F0008B1355303C008F00F9
:100C1600AA308F008F013D001208E0390E3892008D
:100C260055303C008F00AA308F0001308F00701CB9
:100C36001E2E8B1708008B1308008531AC258631D4
:100C46000A30FC007C082000C30043088531B82523
:100C5600863178082000A7007908A8007A08A9003C
:100C66000030A4000030A5004030A600873154278C
:100C7600863120002408B4002508B5002608B600F1
:100C86008631CD26863120003408FC007C08C2005F
:100C9600FA30FC007C08C30082304302031C4B2E52
:100CA6004308853186258631003085318B2586318E
:100CB6006430F0000030F1008531D22586310230F3
:100CC60022008C0601302000C3024F2E7308031940
:100CD600712E720871047004031D822E0030F0001C
:100CE6000030F1000030F20008000130F500750810
:100CF600F3070130F236F10CF00C890B7D2EFE3035
:100D0600720503199B2E782E0130F5007508F3073E
:100D16000130F007003003180130F10700300318E6
:100D26000130F2070130F236F10CF00C890B962EE9
:100D3600FF3072050319A82E872E0130F302013009
:100D4600F035F10DF20D890BA32EF11BAE2E0230FC
:100D560073020318A02E7318B62EFF30F0057F30ED
:100D6600F105FF30F2050310F30C7308F500F601E8
:100D7600F7011030F535F60DF70D890BBD2E750808
:100D8600F0047608F1047708F204740803190800E1
:100D9600F217080020003408B8003508B9003608F4
:100DA600BA000310390D3A0DBB003B08C1004108DB
:100DB600031DE62E0030B7000030B6000030B50047
:100DC6000030B40008003408B8003508B900360809
:100DD600BA001730BA36B90CB80C890BED2E3808A4
:100DE600BB003B08BC00B517FF30B405FF30B505A6
:100DF6000030B6053408BD003508BE003608BF0011
:100E0600C0018E30C102C11F242F4108803A8F3E97
:100E16000318162F0030B7000030B6000030B500BA
:100E26000030B40008000130C036BF0CBE0CBD0C4B
:100E3600890B172F0130B8003808C10703193D2F59
:100E4600162F18304102031C3A2F0030B70000302D
:100E5600B6000030B5000030B40008000130BD35E2
:100E6600BE0DBF0DC00D890B322F0130C1024108E6
:100E7600031D312F3C0803194B2FBD09BE09BF09BD
:100E8600C009BD0A0319BE0A0319BF0A0319C00A1D
:100E96004008B7003F08B6003E08B5003D08B4005C
:100EA600080020002708AA002808AB002908AC0083
:100EB60003102B0D2C0DAD002D08B2003208031DBA
:100EC6006B2F0030A4000030A5000030A6000800FB
:100ED6002408AA002508AB002608AC0003102B0D39
:100EE6002C0DAD002D08B3003308031D812F0030F3
:100EF600A4000030A5000030A60008000030AF00B6
:100F06000030B0000030B10089303307AA002A084B
:100F1600B2022708AA002808AB002908AC00103046
:100F2600AC36AB0CAA0C890B932F2A08AD002D0802
:100F3600B3002408AA002508AB002608AC00103030
:100F4600AC36AB0CAA0C890BA32F2A08AD002D08D2
:100F5600B3068030AA002A08B305A817FF30A705F4
:100F6600FF30A8050030A905A517FF30A405FF30FE
:100F7600A5050030A6051830AA002A08AE000130E3
:100F8600AF35B00DB10D890BC32F26082902031DFD
:100F9600D22F25082802031DD22F24082702031C5E
:100FA600DB2F2408A7022508A83B2608A93B2F14F7
:100FB6000130A735A80DA90D890BDC2F0130AE0233
:100FC600031DC22F2F08F0003008F1003108F2008F
:100FD6003208AA002A08F3003308AB002B08F400F5
:100FE6008631692670082000A4007108A5007208E1
:0A0FF600A600080020008631202E1E
:020000040001F9
:04000E00E43FFF1FAD
:00000001FF
