:02000000FE2FD1
:100F6A00743083168F000800F201B527C827E127DD
:100F7A0083129F18BD2F9F141E08F1007108F200FA
:100F8A0072089300BD2F83161F088F3930389F00CF
:100F9A0083121F139F1383160714111683121F0837
:100FAA00E33910389F001F140630F000F00BDB2FD6
:100FBA00000083129F1408008316071687166530EF
:100FCA009200831215083F39803895001508F039C8
:100FDA000C389500CF30950593018C10FC309205A2
:100FEA0012151608803932389600831607128712AE
:060FFA0008008301B92F7D
:02400E00D4F0EC
:00000001FF
