:020000040000fa
:080000000001040000000000f3
:020000040000fa
:100008005a0500005a0500005a0500005a0500006c
:100018005a0500005a0500005a0500005a0500005c
:100028005a0500005a0500005a0500005a0500004c
:100038005a0500005a0500005a0500005a0500003c
:100048005a0500002e020000260200005802000097
:100058005a0500005a0500005a050000ae010000cc
:10006800940100005a0500005a0500005a050000d6
:100078005a0500005a0500005a0500005a050000fc
:100088005a0500005a0500005a0500005a050000ec
:100098005a0500005a0500005a0500005a050000dc
:1000a8005a0500005a0500005a0500005a050000cc
:1000b8005a0500005a0500005a0500005a050000bc
:1000c8005a0500005a0500005a0500005a050000ac
:1000d8005a0500005a0500005a0500005a0500009c
:1000e8005a0500005a0500005a0500005a0500008c
:0800f8005a0500005a05000042
:020000040000fa
:100108005a0500005a0500005a0500005a0500006b
:100118005a0500005a0500005a0500005a0500005b
:100128005a0500005a0500005a0500005a0500004b
:100138005a0500005a0500005a0500005a0500003b
:100148005a0500002e020000260200005802000096
:100158005a0500005a0500005a050000ae010000cb
:10016800940100005a0500005a0500005a050000d5
:100178005a0500005a0500005a0500005a050000fb
:100188005a0500005a0500005a0500005a050000eb
:100198005a0500005a0500005a0500005a050000db
:1001a8005a0500005a0500005a0500005a050000cb
:1001b8005a0500005a0500005a0500005a050000bb
:1001c8005a0500005a0500005a0500005a050000ab
:1001d8005a0500005a0500005a0500005a0500009b
:1001e8005a0500005a0500005a0500005a0500008b
:0801f8005a0500005a05000041
:020000040000fa
:100200006f8620000e9f20000e0188000000000075
:1002100000012000200288000c000700c0592000c7
:100220000100200011000700000020000000e00095
:100230000200320000000200000000006a0202001a
:10024000000000000040da000000fe004440a90069
:10025000000020000000e000030032000000200049
:10026000a00188004440a800000006009101880019
:10027000800078000000eb0015003700e2804000ad
:1002800032a0b4009101ba00e280400032a0b40074
:100290009102ba00e280400032a0b4000002eb00fc
:1002a000472bde00f507b200602ce10004003a00a5
:1002b0000059eb008301e900fdff3e000400370018
:1002c0006128e100010032000082eb000400070019
:1002d0001101ba000200e000e8ff3a000000060049
:1002e0003159ba008301e9000c0032002159ba00eb
:1002f0008301e900080032000400e00003003a0036
:10030000e280400032a0b400f5ff370011d9ba00f6
:100310008301e900faff3a008100e800e180400033
:1003200032a0b40000000600801f7800841f78000f
:100330000000fa008600a900148020001442780012
:1003400004c2ea000440780001e8b7000080fa0027
:100350004f0278004f00780000400600801f7800b0
:10036000849fbe000000fa0085e0a90045168000c9
:10037000840320000482620084428800844280005a
:100380004322de008442880004802000144278006a
:10039000e04f520007003200844280008402420095
:1003a000e48320000482420014027800a40e880036
:1003b000060037008442800084024200e48220006c
:1003c0000482420014027800a40e88008442800057
:1003d000e50f520019003a0065852000954278002b
:1003e000054278000414a2000482fb000402e90024
:1003f0004f22de00044278008542e8000540780084
:1004000056e8b700e04f52000c003200540880005c
:10041000944288000002eb0054088800a542800046
:1004200094428000048242000402d100a442880069
:1004300014c0b3000440780056e8b7000080fa000a
:100440004f02be004f007800004006000000fa0096
:100450008540a9000080fa0000400600849fbe008d
:100460000000fa008520a900d54280009410800089
:1004700004427800844a7800d44280001442780014
:10048000ed4f520004003a004e48a800248020009e
:10049000d442880003003700d44280000402e80000
:1004a000d44288000080fa004f02be0000400600df
:1004b000841f78000000fa008560a9000414800001
:1004c000e44288004e28a8000080fa004f0278001d
:1004d000004006000200fa000002eb00e41688006b
:1004e00004fc2f00c4168800040e200004068800b7
:1004f000040e20002406880085e0a9008de0a800f5
:1005000069000700580007009000070086000700f8
:100510007a0007000002eb00a44288004516800024
:1005200084032000048262008442880084428000a8
:100530004322de00844288000480200014427800b8
:10054000e04f5200070032008442800084024200e3
:10055000e48320000482420014027800a40e880084
:10056000060037008442800084024200e4822000ba
:100570000482420014027800a40e880074772000e0
:10058000440e88004e08a80013e1a80014c0b30070
:100590000440780056e8b700400620002d0107000f
:1005a0002c0037000042eb00044f780084428000aa
:1005b00004427800044fe8000480200014427800d0
:1005c000e04f5200080032009e4278000582fb0096
:1005d00084024200e4822000048242001402780077
:1005e000a40e8800070037001e4078000082fb0040
:1005f00084024200e4832000048242001402780056
:10060000a40e88004006200012010700047020009c
:10061000440e88000002eb00a40e88004e08a900da
:100620000100370000000000148020001442780010
:10063000e04f5200dbff3a00744280006202620029
:10064000e00f5200030032004f000700c200070015
:100650004e28a9007442800061026200e00f52003f
:10066000f0ff3a00adff37000000fa0084ff2f00d2
:10067000441588004406200004158800042020004a
:100680001415880024002000341588000408200078
:10069000241588008560a9008d60a800a1e2a8004b
:1006a0000080fa00000006000000fa007415200027
:1006b000240e880004702000440e88000002eb0025
:1006c000a40e880044062000b40e880044062000d2
:1006d000c40e880044062000d40e8800240e80003a
:1006e000340e880004f02000540e88000400280016
:1006f000040e88000080fa00000006000000fa00e6
:100700008220a8008600a900e40480000400a10063
:100710000410a0000420a000e40488008e00a800bb
:100720000080fa00000006000000fa000403200028
:10073000940888000002eb00540888000082eb0057
:10074000740888000080fa00000006000000fa002b
:1007500004002800641088000002eb007410880078
:10076000f4012000a41088008d20a800248020001f
:10077000d44288004e48a9004e68a9000f42a80044
:100780000080fa00000006000400fa00a442800085
:10079000050020000401be0060342c00310220005e
:1007a000c60007000002be00040f78009e02780019
:1007b00004712200110009008482d8000002780030
:1007c000244798002e429000e04f5200060032006d
:1007d0002e4290008482fb00048f2d0004aab900f1
:1007e000040278001e0f42002e4290000443b00025
:1007f0000440780011e8b7009e027800843e200093
:10080000110009008482d800000278002447980073
:100810002e429000e04f5200060032002e4290001f
:100820008482fb0084c12f0004aab900040278006e
:100830001e0f42002e4290000443b0000440780096
:1008400012e8b7009e02780044062000110009005b
:100850008482d80000027800244798002e4290003d
:10086000e04f5200060032002e4290008482fb00ce
:10087000c4f92f0004aab900040278001e0f420038
:100880002e4290000443b0000440780013e8b70003
:100890009e027800a4002000110009008482d80084
:1008a00000027800244798002e429000e04f52004a
:1008b000060032002e4290008482fb0064ff2f006d
:1008c00004aab900040278001e0f42002e429000d4
:1008d0000443b0000440780014e8b7001e0278001a
:1008e000044278000443b0000440780015e8b700e3
:1008f00094802000c4428800030007004e28a9000d
:100900000080fa00000006000000fa000c0037002a
:1009100000000000751080000420200004826200a6
:10092000e00f5200fbff3a00c542800015427800fc
:100930000482fb00841088000502e800c44288009d
:10094000c442800014427800e04f5200f0ff3a00a9
:100950000080fa00000006000000fa00a4428000b7
:10096000050020000401be0060342c00310220008c
:10097000520007000002be0004027800f442880022
:10098000e44280004322dd00e4428800e54280002a
:10099000f442800004825200044388002543800012
:1009a0000443800004824200244388000443800002
:1009b000cfa2de00e606200006abb90006037800f1
:1009c0006020b900800378000703430084027800a8
:1009d000e4062000042ab8000503430086027800dc
:1009e00040aade00cfa2de00040278001443880093
:1009f000b50e80001443800004824200b40e8800cb
:100a0000b40e8000e40f520004003e0054002000a9
:100a1000b40e88000002eb0024438800b50e80006d
:100a200004402000848f520004003600044020005f
:100a3000b40e88000002eb0024438800b40e80004e
:100a4000c40e8800b40e8000d40e88000080fa0026
:100a5000000006000400fa001007980008003700a4
:100a60000002eb00040f7800010037001e0fe800c1
:100a7000743e20009e027800848f5200fbff3600f7
:100a80001e02900004f0a7000402ea000402ea003b
:100a90004f22de00044278009e0290008502e900a9
:100aa00015079800e04f5200edff3a000080fa0071
:100ab000000006000040da000000fe00839f68008e
:100ac0000100e00002003d0060001000e08018001e
:100ad0000300e00002003d0060011100e081190008
:100ae000050007004f00e00002003b00600010001e
:100af000e0801800000006006022b8000602200016
:100b00000000d0008180d2000482d2008582d20011
:100b10000000a0000202520083825a00030031004c
:100b20000202420083824a000000a1000603e9009d
:080b3000f3ff3a00000006008b
:020000040000fa
:100b38004e08000018000000000000000008000037
:100b48004e0000000200000000003000303030008d
:100b58003030000053706500656420003d2030008f
:100b68003030300030207200706d0d000a00000037
:100b78000000100002042000040201000810080010
:100b88000120000000000000100204002004020000
:100b980001081000080120000000000000012000ea
:100ba80010080100080402000420100002000000e0
:040bb8000000000039
:020000040000fa
:0200000401f009
:04000000f5bf000048
:020000040000fa
:0200000401f009
:04000400ff7f00007a
:020000040000fa
:0200000401f009
:040008007cff000079
:020000040000fa
:0200000401f009
:04001400ffff0000ea
:020000040000fa
:0200000401f009
:04001800ffff0000e6
:00000001FF
